:020000041004E6
:10000000006000203D2604102D2904102F29041023
:10001000AA5555AA45554C420000000000000000BA
:100020000000000000000000000000003129041062
:1000300000000000000000009F2404103329041079
:100040003B290410A124041000000000000000005F
:100050003D290410A32404103F290410AF240410E8
:100060000000000000000000000000000000000090
:1000700000000000B1240410B3240410B5240410BF
:1000800000000000A5240410A7240410A9240410D3
:10009000AB240410AD2404109B2404109D240410F0
:1000A0000000000000000000000000000000000050
:1000B0000000000000000000000000000000000040
:1000C000EFF31482EFF30981002080F31488BFF36B
:1000D0006F8FF0B543464C4655465E466746F8B4CA
:1000E000164CEFF30883236006B4154C2068154CBA
:1000F0002060154C2068154C2060154C2068154C6C
:100100002060154C276800202060BFF34F8F30BF60
:1001100027600A4C246884F3088882B003BCF8BCCA
:100120009846A146AA46B346BC46F0BC04BC80F340
:10013000098881F31488BFF36F8F104708000020EF
:1001400004ED00E0AC13002024ED00E0A01300203B
:1001500000E200E0B0130020080020400022430825
:100160008B4274D303098B425FD3030A8B4244D37F
:10017000030B8B4228D3030C8B420DD3FF220902C1
:1001800012BA030C8B4202D31212090265D0030B80
:100190008B4219D300E0090AC30B8B4201D3CB0376
:1001A000C01A5241830B8B4201D38B03C01A5241B8
:1001B000430B8B4201D34B03C01A5241030B8B42BA
:1001C00001D30B03C01A5241C30A8B4201D3CB02A5
:1001D000C01A5241830A8B4201D38B02C01A52418A
:1001E000430A8B4201D34B02C01A5241030A8B428D
:1001F00001D30B02C01A5241CDD2C3098B4201D3A5
:10020000CB01C01A524183098B4201D38B01C01A22
:10021000524143098B4201D34B01C01A5241030999
:100220008B4201D30B01C01A5241C3088B4201D348
:10023000CB00C01A524183088B4201D38B00C01AF5
:10024000524143088B4201D34B00C01A5241411A1C
:1002500000D20146524110467047FFE701B5002029
:1002600000F006F802BDC0460029F7D076E77047D7
:100270007047C046002B11D1002A0FD1002900D1B0
:10028000002802D00021C943081C07B4024802A17B
:100290004018029003BDC046D9FFFFFF03B4684673
:1002A00001B5029800F054F8019B9E4602B00CBCC8
:1002B0007047C046F0B5CE46474615042D0C2E00BB
:1002C00080B50704140C3F0C9946030C7E435D4334
:1002D000674363437F19340CE4199C46A54203D954
:1002E00080235B029846C4444B4651434343360443
:1002F000360C250C24046544A4195918491920000A
:100300000CBC90469946F0BD0F4BD0B50400994205
:1003100006D9430504D08023C40AE4021B011C4310
:10032000080000F0DFFF0022084B00F05BFD060034
:100330000F00200000F0D6FF32003B0000F042FA30
:1003400001F008F8D0BDC046FFFF1F000000F041DB
:10035000F0B557464E464546DE46E0B5040083B04C
:100360000D00924699468B422FD82CD049465046D4
:1003700001F098F829000600200001F093F8331AE4
:100380009846203B9B4600D574E053465A4693401E
:100390001F005346424693401E00AF4229D826D044
:1003A0005B46A41BBD41002B00DA79E0002200234C
:1003B0000092019301235A46934001930123424640
:1003C0009340009319E08242D0D90022002300928A
:1003D00001930C9B002B01D01C605D60009801997B
:1003E00003B03CBC90469946A246AB46F0BDA34242
:1003F000D6D900220023009201934346002BE8D077
:10040000FB0772081A4346467B080EE0AB4201D157
:10041000A2420CD8A41A9D41012024196D4100214B
:10042000013E24184D41002E06D0AB42EED9013ECC
:1004300024196D41002EF8D15B46009801990019EE
:100440006941002B22DB2B005A46D3402A00444648
:10045000E2401C005B461500002B2CDB26009E4072
:10046000330026004746BE403200801A9941009072
:100470000191AEE7424620239B1A5246DA4041469C
:1004800013004A468A4017001F4382E74246202352
:100490009B1A2A0046469A402300F3401343D5E7AF
:1004A0004246202300219B1A002200910192012242
:1004B000DA40019282E74246202326009B1ADE4062
:1004C0002F00B446974066463B003343C9E7C04619
:1004D000437802781B021A438378C0781B041343C5
:1004E000000618437047C046030A4B70030C8B701C
:1004F000030E0870CB70704703005A780078120220
:1005000002439878197900040243D8780006104312
:100510005A7912020A43997909040A43D9790906DA
:1005200011437047030A5370030C9370030ED3708A
:100530000B0A53710B0C93710B0E10701171D37168
:100540007047C046F8B557464E464546DE46E0B5CC
:100550004702460088467F0A360EC40F002E47D059
:10056000FF2E24D0FB008027FF041F430023994661
:100570009A467F3E43465D025800DB0F6D0A000E2F
:10058000984643D0FF283BD0EB0080250022ED04A5
:100590001D437F383618731C41469B464B466140CD
:1005A00013430F2B64D875489B00C3589F46002FF8
:1005B00042D108239946063BFF269A46DAE7414690
:1005C000022A28D0032A00D1CEE0012A00D0ACE0D4
:1005D000114000200022CCB24002D205400AE407BC
:1005E000104320433CBC90469946A246AB46F8BD1A
:1005F000002F15D104239946033B00269A46B9E7FC
:10060000FF200222002DC5D00322C3E7002D19D1FF
:1006100000200122BEE70124FF220C400020DBE77E
:10062000380000F021FF7626431F9F4000237642CA
:10063000361A99469A469DE70C239946093BFF26B0
:100640009A4697E7280000F00FFF431F9D4076234E
:100650005B42181A00229DE780200024C003FF227D
:10066000BAE73D005246ABE73D0021005246A7E7FE
:100670003B0C9C462A04120C2B0C14006046654669
:100680003F043F0C7C4342435D437B43270C9B1854
:10069000FF18BA4203D980235B029C4665442404B8
:1006A0003A04240C121993015C1EA3413F0C920ED4
:1006B0007D191A43AD0115432B0104D501235E4674
:1006C0006A081D40154332007F32002A25DD6B0782
:1006D00004D00F232B40042B00D004352B0103D56D
:1006E0003200274B80321D40FE2A94DC0124A801F1
:1006F000400AD2B20C406FE78020C003074207D007
:10070000054205D128434002400A4446FF2263E7E0
:1007100038434002400AFF225EE70124A31A1B2B44
:1007200005DD0C400022002056E75E46CBE72A009C
:100730002020DA40C31A9D402B005D1EAB411343BD
:100740005A0704D00F221A40042A00D004335A0159
:1007500004D5012401220C4000203DE701249B0127
:10076000580A0C40002237E780200124C0032843A8
:100770004002400A0C40FF222EE7C046141D05101F
:10078000FFFFFFF741024300C20F490A1B0E002082
:100790007E2B0DDD9D2B0CDC802000040143952B6E
:1007A0000ADC9620C31AD9404842002A00D108002A
:1007B0007047034BD018FBE7963B9940F4E7C046DF
:1007C000FFFFFF7FF8B54546DE4657464E460C0311
:1007D000E0B54E00C90F88460D00610A440F0C4376
:1007E000C70019035800DB0F9B464B0A510F0B4300
:1007F000760D400D1900D200D84500D1AEE0351A73
:10080000002D00DCF6E000280FD1134300D1DBE01F
:100810006B1E002B00D037E1BA1A9742BF41641A11
:100820007F42E41B0126170024E0C64B9E424DD0B8
:1008300080231B041943382D00DD07E11F2D00DD47
:1008400038E12020431B9A460B00504683409946CE
:1008500013004846EB401843030050468240501EA8
:100860008241E9401A43BA1A611A9742A44117001B
:1008700064420C1B230262D56402650A002D00D17C
:10088000DFE0280000F0F0FD0300083B1F2B00DD37
:10089000D2E020223C00D21A9D40D4409F40254304
:1008A0009E4200DDC4E09E1B731C1F2B00DDF1E0A7
:1008B000202238002900D21AD840914097402C00BD
:1008C0000143781E8741DC4000260F437B0709D097
:1008D0000F233B40042B05D03B1DBB42BF417F4251
:1008E000E4191F0023022CD5964B01369E4200D1FD
:1008F0009AE04546944BFF081C4060077605640269
:100900000743240B760D00212403230B0C0D8F4A83
:1009100024051C431440330523435B00ED075B08AB
:100920002B43380019003CBC90469946A246AB4682
:10093000F8BD6446044300D111E2040067467B071A
:10094000C6D145466007FF080743E4087D4B9E4239
:1009500030D024037605240B760DD4E7331A9A465B
:10096000002B78DD002831D076488642AED080203A
:10097000000401435346382B00DCE9E00A43511ED2
:100980008A410021D219BA42BF4109197C4217009D
:100990000C192302D3D56B4B01369E4200D13AE1AC
:1009A0000120694B1C407B0807401F43E0070743B9
:1009B00064088BE723003B4300D1CBE18022120384
:1009C00014432403240B9EE72E007FE70800104306
:1009D00000D1B4E0581E002800D0DEE0BA18BA42B8
:1009E0009B4164185B42E418170001262302A6D538
:1009F0000226D5E7002D6ED1701C4005400D012860
:100A000000DCF9E0B81A844687428041E51A40428A
:100A10002D1A280200D489E0D71BBA4292411C1B30
:100A20005242A51AD84629E74546002400276AE71E
:100A3000454CF61A2C4049E73D00283885400027F0
:100A40002EE7380000F010FD20301DE70A43511E4C
:100A50008A41002107E7002B00D0F3E0701C43051A
:100A60005B0D012B00DCADE0364B984200D1D1E0AC
:100A7000BA18BA42BF4164187F42E419E707520826
:100A800017436408060021E72E48854200D193E011
:100A90001D00D0E629001F3EF140202B00D18DE043
:100AA0004022D31A9D402F437D1EAF4100240F43A7
:100AB000002644E72B000800203BD8400300202DEF
:100AC00000D17DE04020451BA9400A43511E8A41C8
:100AD00000211A43C7E6002E50D01A4EB04257D01C
:100AE00080266B429946360434434B46382B00DD52
:100AF000D6E01F2B00DD35E12026F51A2600AE409A
:100B0000B2463E00DE40AC46350056462E436546B2
:100B1000AF407D1EAF41DC403743D71BBA42924104
:100B20000C1B5242A41A0600D846A3E66446674648
:100B30002C4300D0A2E600250026002706E71E0071
:100B4000C4E6C046FF070000FFFF7FFFFFFF0F80E6
:100B50001F2B63DC2020C31A080098409C46834664
:100B600053461000D84003005846184363469A4045
:100B7000531E9A4153460243D94003E726003E43A1
:100B800006D0EB439946002BC7D0944EB042ACD16F
:100B90000C0017000600D84698E6904B9A450BD0FB
:100BA0008246E7E6002800D09EE01800104300D1FE
:100BB000E9E01C001700D846884E87E6002572E75A
:100BC000002182E723003B43002E00D0ABE0002B46
:100BD00000D1E7E00B00134300D177E6BA18BA4220
:100BE000BF4164187F42E419230200D4F2E07C4B39
:100BF00017001C40060069E620003843002ED1D1C2
:100C000000285BD11C00144300D1A8E01C00170091
:100C1000D8465BE606000024002797E650460B0006
:100C20002038C34099465346202B00D195E04023FD
:100C300050461B1A99400A43511E8A414B460021D7
:100C40001A439FE6002E30D126003E4367D0DB4397
:100C50009A46002B1CD0614EB04260D05346382BD0
:100C600000DD96E01F2B00DD9FE02026F31A260012
:100C70009E409C46B34653463E00DE4033005E46EF
:100C80001E4363469F407B1E9F415346DC403743D3
:100C9000BF189742924164185242A418060078E6A1
:100CA00027437C1EA741002437E74C4EB04236D084
:100CB00080265B4236049A463443CFE7180010433F
:100CC00000D103E6B81A84466745AD41E01A6D428B
:100CD000401B050200D42CE6D71BBA4292411C1BD4
:100CE0005242A41AD846F1E51800104300D163E738
:100CF000F808670707438020E4080003044208D08F
:100D0000DD08054205D1D208590711430F002C0018
:100D1000D8467B0FE4001C43FF00304ED6E50C00A4
:100D200017000600D2E5002B38D00B00134300D18A
:100D300042E7F808670707438020E40800030442FD
:100D4000E7D0CB080342E4D1D208490711430F0092
:100D50001C00DEE700270024D5E500216BE7002515
:100D60000027F3E54E462500203EF5404B462E0079
:100D7000202B2DD04025ED1AAC4027437C1EA741E7
:100D800000243743C9E6802400252403134E00279E
:100D9000DCE527437C1EA741002479E70C001700FF
:100DA0000E4E93E50C00170090E556462300203EBA
:100DB000F34099465346202B0ED0402356469B1BAA
:100DC0009C4027437C1EA7414B4600241F435FE7FE
:100DD0000024D2E71700B2E50024F2E7FF07000085
:100DE000FFFF7FFFF0B557464546DE464E46E0B56D
:100DF0000C0398464E00230B87B0070092469B4693
:100E0000760DCD0F002E6BD06D4B9E4235D08024D9
:100E10005B46420F2404DB0014431C43C300994685
:100E2000684BA3469C460023002766440293434632
:100E30001C035A00DB0F5046240B520D984600D17C
:100E400076E05F4B9A426DD08023410F1B040B4329
:100E50005C49E4008C461C43C300002062444146C8
:100E6000B6186940721C0191944607430F2F00D9B0
:100E7000B0E0554ABF00D25997465B4603439946B6
:100E800000D087E000239B46023308270293CEE779
:100E900042460192022867D0032800D10EE20128C1
:100EA00000D062E10023002400229946019901400C
:100EB000CDB2002112030B0D120B1B051343434A45
:100EC000240513401C436400ED0764082C43484686
:100ED000210007B03CBC90469946A246AB46F0BD07
:100EE000034399464FD05B46002B00D189E1584619
:100EF00000F0BAFA03000B3B1C2B00DD7AE11D2247
:100F0000D31A3A0001005C46DA4008398C401300DD
:100F10008F4023439B46B94600232D4E0027361AA7
:100F2000029384E7534623432AD10024022096E704
:100F30005346234320D0002C00D157E1200000F07D
:100F400093FA03000B3B1C2B00DD49E11D21CB1A5A
:100F500051460200D9405346083A944093400C430E
:100F60001B4A121A00207AE70125019B144C1D40F0
:100F70000023002299469CE70024002201206EE70E
:100F8000534603206BE700239B46013304270026CA
:100F900002934CE7032381460C27029347E7802204
:100FA0000023002512039946054C82E75C464B4618
:100FB00002986FE75C464B46019502986AE7C04687
:100FC000FF07000001FCFFFF541D0510FFFF0F800D
:100FD0000DFCFFFF4A464946170C1A0C1B041B0C5C
:100FE00008041900000C41431500884619007D4390
:100FF0007943039589462900150045434D440295E0
:1010000045462D0CAA46029D5544A94506D98A4657
:10101000802149028946CA4451460391290C049112
:10102000414609042D04090C88462900250C240496
:101030004144240C05912100414388462100794315
:101040008A466843414650448146080C48446F43F1
:10105000824503D98021490289464F44010C8946C3
:1010600039004944029141460F0404993F0C8846D7
:101070000004C01980444146049159460F0C0904EC
:10108000090C884659438A463900514389464146EE
:101090004A435146090C8B467B43D2185A4493422B
:1010A00003D980235B029B46D94451460904090CAD
:1010B0008A46414661437C43130C12044B4452441C
:1010C000A1468A463C0041466C434D4351464D443F
:1010D0000F0C7D19A94503D9802149028846444453
:1010E000049F0399B84641448B4683458041414261
:1010F0008846514608042F04000C3F1858460299B0
:1011000010188946904292414F44BA46524299463D
:101110009346C244D144CB448F42BF41C24589412A
:1011200099459B41934592417F4249422D0C524241
:101130000F435B4213437F19FF185B463C19DB0DDD
:10114000059A64021C43430213435D1EAB415A4699
:10115000C00D034352021343E20156D501205A0841
:1011600003401343E207134364085A4860440028CD
:101170004DDD5A0709D00F221A40042A05D01A1D46
:101180009A429B415B42E4181300E20104D580209F
:10119000514AC00014406044504A904200DDE3E6EA
:1011A0000125DB0862071A436402019B9146220B6A
:1011B0004405640D1D407CE680225946120311420D
:1011C00008D0144206D122431203120B4546994619
:1011D000434C6EE65B461A431203120B404C68E622
:1011E00003005446283B9C400023B9E600F03CF93C
:1011F0002030A6E60300283B9F400023BB469946CB
:101200008AE600F031F9203074E6B446ADE70125F6
:101210002A1A382A06DD019B00241D4000230022E3
:10122000994646E61F2A21DC20252000AD1A1E0023
:10123000AB40A840D6405D1EAB4130431843D4407C
:10124000430709D00F230340042B05D00300181DCA
:1012500098429B415B42E418230221D50125019B62
:1012600001241D4000230022994622E61F2521006B
:101270006D42281AC1400800202A1DD05F35AA1AE5
:10128000944023435C1EA341072503431D400022D5
:10129000002D09D00F2200241A401800042AD6D1AC
:1012A000030065076402220BDB082B4301259946E6
:1012B000019B00241D40FCE50024E2E7802201257B
:1012C0001203224301991203120B0D409946044C5C
:1012D000EFE5C046FF030000FFFFFFFEFE07000032
:1012E000FF07000010B5041E28D000F0BDF8154B14
:1012F000154A1B1AD21A1F2A15DD144AD21A944015
:10130000002224035B05240B5B0D00211000240345
:101310000A0D240B120522430D4C1B0522401343DA
:101320005B00590810BD210091400A000B21081AEA
:10133000C4405B052403240B5B0DE6E70023002477
:101340000022E2E71E040000330400001304000042
:10135000FFFF0F80F0B54C00640D0B03621C450FBE
:101360005B0A52052B43C90FC500520D012A28DD27
:101370003A4AA618FE2E1BDC002E3EDD800102003C
:10138000501E82416D0F2A43DB0013435A0704D0DD
:101390000F221A40042A00D004338022D2041A40BB
:1013A0005AD00136FF2E03D09B015B0AF4B201E054
:1013B000FF2400235802E405400AC90720430843DC
:1013C000F0BD002C07D01D43F2D08020DB0080044C
:1013D0000343FF26DAE72B4303D00523DB08FF2C6A
:1013E00003D05B025B0AE4B2E4E7002B32D080203A
:1013F000C00303435B025B0ADCE73200173214DBF5
:1014000080221E2712041343BF1B1F2F0FDC144A18
:10141000944664442A00A5402E00A340751EAE41A8
:10142000FA40334313430026B0E70024D5E70222F5
:101430005242961B1A00F240202F09D009488446D8
:101440006444A3402B435D1EAB41002613439DE73C
:101450000023F7E70023ADE73400BFE780FCFFFF80
:1014600082FCFFFFA2FCFFFF1C2101231B0498420A
:1014700001D3000C10391B0A984201D3000A083925
:101480001B09984201D30009043902A2105C4018DC
:101490007047C04604030202010101010000000080
:1014A0000000000010B5002903D1FFF7DDFF203058
:1014B00002E0081CFFF7D8FF10BDC046024A1368BF
:1014C000013313607047C046000300200E4AD36901
:1014D0001B061B0F4370D9B2D3690C4A1B071B0FA5
:1014E00083700B4B1B68436093420BD10223037044
:1014F000002901D101234370064B9B8A01339B00D5
:10150000836070470123F2E70000904041A0000291
:101510002800904000001040F0B5070085B001ACF5
:101520000E0020001500FFF7D1FF23783B70637891
:101530003370A3782B7005B0F0BD10B501F0B3FE89
:1015400010BD10B501F0CAFE10BD10B501F09CFE33
:1015500010BD0000F0B51B4C1500A5440E91040011
:10156000EFF31083069372B60022174B1A7010F037
:10157000F9F80600200001F015FA331C864200D964
:10158000031CDAB2A24200D9231CDBB20F4A990035
:1015900000938B5801338B50009B002B07D1069B87
:1015A00083F310880020A9239B009D44F0BD009B7D
:1015B000012B0FD10021064B1A7A1972D2B230BF1B
:1015C0001A72ECE75CFDFFFF0C0000200403002012
:1015D0000000704038226B46E14C9B1825701B7848
:1015E0007DA82371FFF772FF237ADE49DBB20A93ED
:1015F0008B88DD4A9BB2109313685C911193002392
:101600000894059280A91A000598C032920080586B
:101610009A0001335050082BF5D1D44CD44823689C
:10162000D4491293036AD44F13938023DB051A68BD
:10163000D24E14925A68D24D15929A681692DA6870
:1016400017921A6918925A6919929A691A92DA6964
:101650000B92DA6A1B921A6B1C925A6B1D921A8FAC
:1016600092B21E925B6CC74A1F93CB6820930B7F8C
:10167000DBB221938B8C9BB22293C34B1B78DBB2E2
:101680002393C24B1B78DBB224930B6B2593C04B87
:101690001B78DBB226930B8F9BB22793BD4B1B7835
:1016A000DBB22893BC4B9C461B78DBB229933B787A
:1016B000DBB22A933378DBB22B932B78DBB22C93FB
:1016C000B64B1B78DBB22D9313682E9353682F9380
:1016D000137CDBB23093137DDBB23193B04BDB7FF5
:1016E000DBB23293138D9BB23393D36A3493138E50
:1016F0000491A5499BB25E91A44935935F91A44999
:1017000000236091A349019261916146A44A6291CC
:10171000A2495D946397649665950F906691679270
:1017200069AF6BAE6DAD6FAC9E4A9A1892041168AA
:10173000D95151689951918BE950118CE150908C9D
:1017400071A9C850108D73A9C850D06A75A9585096
:1017500011004C31088877A9C850106D79A95850EC
:10176000916D7BAA99500433082BDDD1B0231B0661
:101770001B688D4C369363688C4A3793A3688C4DF5
:101780003893238A9BB23993A38A9BB23A93A36975
:101790003B93237FDBB23C93238E9BB23D93636BE1
:1017A0003E93A36B3F93E36B4093236C4193636C35
:1017B0004293A36C439393889BB2449313899BB247
:1017C0004593137CDBB24693137DDBB24793138BB7
:1017D0009BB24893137FDBB24993764B998889B2C9
:1017E0004A91198989B24B91197CC9B24C91197DE2
:1017F000C9B24D91198B89B24E91197FC9B24F91DF
:101800006D49086850904868519028685290287A2D
:10181000C0B25390C020000128580995039302924A
:101820000D000023002800D1644B90AA0D9394462C
:10183000002388A898A9052266465A43604FD2190A
:1018400057689F5117681F5097685F50D768A0AAC4
:101850009F500433202BEED18123DB055A6854922C
:101860001A7BD2B255925A8B92B256921A8B92B27E
:1018700057925A6A58929A6A1B8859929BB25A9305
:10188000C0231B069B685B93009B032B06D1902211
:10189000C023D20551689B050B435360494B4A4A0C
:1018A0001B680793503B0C9300230C99C9180968D7
:1018B000D1500433502BF8D1444B079A1A607DAABB
:1018C000537892781B011343112B04DD0020404B09
:1018D000186000F03BFE9023DB055A683D4B1A6010
:1018E000089B1E791A788023DB051B685B0A53402E
:1018F0009E4300D053E6012000F0E0FCFEF7E0FB41
:10190000300000F0DBFC344B1B78002B00D0A1E052
:1019100032494B685B0675D4314B32484A680068DF
:101920005C6A844216D1304849680068884204D015
:1019300005994240096811420CD12C4A5968126835
:101940005140C90006D45B685A4053015AD52B68F0
:101950009B0757D5264A274813681B09D91C4BE01B
:10196000000020400000104000E100E020ED00E019
:10197000000090400000304054003040580030409B
:101980005C00304000004040280030402C003040D7
:10199000340030404800304050003040600030405B
:1019A00005004040281000000000F0400000D0403A
:1019B000000070400000E04010E000E051E5CC1A6B
:1019C000080000A000000410501300204C13002059
:1019D00014000020180000200C000020FCE100E0B2
:1019E00000ED00E0A0130020B0130020AC13002095
:1019F00010000048FFFF0F0081421BD813681B092D
:101A00009942FBD87DAA537892781B011343112B7E
:101A100005DD012000F09AFD0A4A0B4B1A60009B7D
:101A2000032B00D0BBE59022D205536807490B4039
:101A30005360B4E506495B18116809099942FBD166
:101A4000E0E7C046CCBCECFC14000020FFFFFFCF59
:101A50000400F0FF0122E74F3A83E74ABE813E616E
:101A60000C9B91599B1904361960502EF8D1079A96
:101A7000E24B40211A606A4652185C9B128880A88B
:101A80009A80059B119A1A6000239A0011581A0037
:101A9000059EC03292000133B150082BF5D15D9BF9
:101AA000129A78211A600F9B139A6DAE1A628023E6
:101AB000149ADB051A60159A5A60169A9A60179A5A
:101AC000DA601A9A9A61199A5A61189A1A610B9AED
:101AD0009A620B9ADA611B9ADA621C9A1A631D9A4F
:101AE0005A636A46521812880C311A871F9A5A6430
:101AF000049B209ADA606A465218049B12780431DB
:101B00001A776A465218049B128804319A846A46EE
:101B100052185E9B127804311A706A4652185F9B05
:101B2000127808311A70049B259A1A636A46521873
:101B3000609B127804311A706A465218049B12880E
:101B400004311A876A465218619B127804311A7060
:101B50006A4652181278629B04311A706A4652180B
:101B6000639B127804311A706A465218649B12788B
:101B700004311A706A465218659B127804311A7043
:101B80006A465218669B12780C311A70019B2E9A85
:101B90001A60019B2F9A5A606A465218019B12786C
:101BA00004311A746A465218019B127804311A756E
:101BB0006A465218679B12780431DA776A465218DF
:101BC000019B128808311A85019B349ADA626A46B1
:101BD0005218019B12881A86002369AA94466FAA9C
:101BE000049261460C20864A59589A189204116052
:101BF00068A90918C95851600191995B91830499AA
:101C0000595A118471A9595889B2918473A95958A4
:101C100089B2118575A95958D16277A9595888B2E6
:101C200011004C31088079A9595811657BA9595880
:101C300004339165082BD4D1B023369A1B061A6061
:101C4000519B509A6B600023AB602A60379AE42165
:101C50006260389A8820A2606A465218128804315D
:101C600022826A46521812880831A2823B9A4000AA
:101C7000A2616A4652181278043122773E9A0526EC
:101C800062633F9A90ADA263409AE263419A2264F4
:101C9000429A6264439AA2646A465218694612885C
:101CA00009182286029A0988043091806946091829
:101CB000029A09880430118169460918029A097844
:101CC0000430117469460918029A09789224117532
:101CD0004021489A02988A430283684664000019AA
:101CE000029A00780434107768460019039A008835
:101CF0000434908068460019039A008804341081E7
:101D000068460019039A0078043410746846001974
:101D1000039A007888AC10754E9A9E208A430399E6
:101D200040000A8369460918039A09781030117730
:101D3000099A5299116069460918099A097811722D
:101D4000C0220D9809991201885098A832005A4370
:101D50002C495218595951601959116019589160FC
:101D6000A0A959580433D160202BEFD18123549A74
:101D7000DB05AA215A606A464900521812780431DC
:101D80001A736A465218128804315A836A465218E6
:101D900012880C311A83589A5A62599A9A626A4682
:101DA000521812881A80C0235B9A1B069A600F9BF8
:101DB0001B7A002B49D13B89082B46D93B89812BC3
:101DC00043D80E9B002B40D009223B8913409342FD
:101DD00004D18023DB05DB699B0533D411223B89C9
:101DE0001340934210D18023DB05DB695B0529D4C6
:101DF0000AE0C04600001048501300204C13002099
:101E000028100000080000A021223B8913409342C3
:101E100004D18023DB05DB691B0513D441223B89F8
:101E20001340934204D18023DB05DB69DB0409D432
:101E300081223B891340934207D18023DB05DB6974
:101E40009B0402D50122214B5A60009B032B05D134
:101E50009022D20553681E490B4053606A462821E0
:101E60005218089B12781A72009B032B2BD100206A
:101E7000273900F029FC0A9BDB0701D4FFF78FFB11
:101E800000F0FAF868ABD87003331B780B2B15D031
:101E9000104B1B881B0711D590220F4BD2051169DF
:101EA0001B685B1A1B021B12D9175B184B40202BB7
:101EB00004DC13692D3311698B42FCD21522074BC8
:101EC0001A70FFF76CFB00210800D2E7FCE100E08C
:101ED000FFFFFFCFC0000020180000200000C0401E
:101EE000024A138ADB07FCD57047C0460000104049
:101EF000084B10B51A68084B9A4209D13F22074B8C
:101F000040061A81000C2E3A98611A80FFF7E8FF0C
:101F100010BDC04614000020CCBCECFC00001040FA
:101F2000084B10B51A68084B9A4209D13F22074B5B
:101F300080081A810C3A986119641A80FFF7D0FF63
:101F400010BDC04614000020CCBCECFC00001040CA
:101F5000F7B5019001790468002931D18022D205BA
:101F60005368A3435360019B20251E6880230022F1
:101F70006D42DB0534000120D44004420BD0D4B2C2
:101F8000072A26D897000E30B840DC6A8443080040
:101F9000B8400443DC62013204351A2AEAD1019BBD
:101FA0005A798023DB05012A3AD1DA683243DA60B4
:101FB000019A9279012A36D19A6816439E60F7BD3C
:101FC0000629D0D18022D2055368002123435360D3
:101FD000C9E72700083F072F08D80F27AF401C6B21
:101FE000BC430F00AF403C431C63D4E7103C072CBC
:101FF0000AD82F000F20203FB8405C6B84430800B4
:10200000B84004435C63C6E72F000F20403FB84050
:102010001C8F84430800B8400443A4B21C87BAE76D
:10202000DA68B243C3E79A68B2439A60C7E780238D
:10203000DB05012901D1D86370471864FCE78022D1
:10204000D2051368584010607047C02380211B06DA
:102050001A680A431A601A688A431A6070470000B7
:10206000044B1A6A012902D1104318627047824357
:102070001A62FBE700009040244B1A7A244BD2B23C
:102080001B899BB2002A36D11A00093A782A19D83E
:1020900009211A0006200A408A422BD01122013061
:1020A0001A40112A26D0212201301A40212A21D09B
:1020B000412208001A40412A1CD0812201301A40D6
:1020C000812A17D002221900FF3211400B209142C1
:1020D00010D019000F4A0130114091420AD01A0065
:1020E00007380240824205D0023818400338434284
:1020F0005841800070470120022AFBD00018042AB2
:10210000F8D00020082AF5D10330F3E70000904012
:102110000000104801040000054B0122196B002843
:1021200002D00A431A63704791431963FBE7C04624
:1021300000003040F8B54A4C0500236B01681B07CE
:1021400000D56DE009014748FEF708F8C3099AB2C7
:10215000A284454ADB0101301340C01A400880B216
:102160003F2802D93F233F381840032760263F4BC2
:10217000C0B218703E4B2A7918783A405201B043E9
:102180001043187001206979227F39404901B24318
:102190000A432277AA7919780240BA40073081436E
:1021A00011431970217F81430A432277EA79002A7B
:1021B00038D102211A788A431A70227F8A4301207B
:1021C00022772A7A216B1600C2402A4F06407602F7
:1021D000394031432163216B274E024031401202C6
:1021E0000A432263697A226B0E00C140234F0640E6
:1021F0003A40B60332432263226B214E0140324003
:10220000C90311432163AA7A197802400F301201E1
:10221000814311431970237F83431A432277F8BD0A
:10222000C90090E7022A0CD10420197811431970D3
:10223000197881431970217F0A432277227F8243D4
:10224000BDE702211A780A431A7004221878104355
:102250001870207F01432177217F0A43AFE7C046F2
:10226000000030400000127A80FF7F0028003040DC
:102270002C003040FFFDFFFFFFFEFFFFFFBFFFFF11
:10228000FF7FFFFF054B002805DA5B681840431EFF
:102290009841C0B270471B8BF8E7C0460000304041
:1022A0000722024038200449D2000B7883431800EB
:1022B000104308707047C04634003040054B04227C
:1022C0001969002802D00A431A61704791431961C5
:1022D000FBE7C04600ED00E070B5012186B00600C6
:1022E0000920FFF7BDFE00F085F81C4B0138800087
:1022F000C3580024019300F07DF8194B0138800089
:1023000001ADC35828002B71AC716C71FFF720FE32
:1023100000F070F8134B01388000C358019300F0AF
:1023200069F8114B01388000C35828002B71FFF762
:102330000FFE0125032303A8037143710372847107
:10234000C471447285720396FFF7F4FE2000FFF714
:10235000A7FF2800FFF7E0FE06B070BDA01D051026
:102360009C1D0510981D0510941D051010B58020AA
:10237000FFF788FF43425841C0B210BD10B5082096
:10238000FFF780FF013843425841C0B210BD000042
:102390000B4A10B513680B49002B00D11160802443
:1023A0001368640118180919884205D90C22012004
:1023B000054B40421A6010BD10601800FBE7C04694
:1023C0001413002014030020F413002010B500F0B3
:1023D0006AFF10BD10B500F066FF10BD10B50A0011
:1023E000002100F07BFF10BD0122014B1A707047E5
:1023F00018130020014B1878C0B270471813002042
:1024000010B50F4C01280AD0002801D002280ED0A8
:10241000FFF7F0FF431E0C205843205806E0FFF75B
:10242000E9FF431E0C2058432018406810BDFFF7F9
:10243000E1FF431E0C20584320188068F6E7C04691
:10244000A41D051010B5FFF7DBFF0121FFF7EFFD1D
:1024500010BD10B5FFF7D4FF0021FFF7E8FD10BD58
:1024600013B5012104000800FFF7FAFD2000FFF773
:10247000C7FF6A460623009013716846053B9371B7
:102480005371FFF765FD2000FFF7E3FF13BD10B5A3
:10249000FFF7B6FFFFF7D3FD10BD704770477047D9
:1024A0007047704770477047704770477047704774
:1024B0007047704770470000002210B5104B995CC0
:1024C000C9B2002917D11C2A14DC022021249854F7
:1024D000501C1C54901C193C1C54D01C19549B18A3
:1024E000802290219BB252021343C905CB60CB6876
:1024F0001342FCD110BD995C01315218D2B2DEE713
:1025000019130020002330B50E4AD15CC9B200294E
:1025100013D11C2B08DC02243525D4545C1C155522
:102520009C1C03331055D1540222074B1A703332CE
:102530005A7000229870DA7030BDD15C01315B189E
:10254000DBB2E2E719130020A413002010B5104BF2
:1025500000280AD0802290219BB252021343C90561
:10256000CB60CB681342FCD110BD042198789A78D7
:102570009CB28A439A708022902152021443C9056A
:10258000C0B2CC60CC681442FCD19870ECE7C04675
:10259000A4130020012330B5234A0324117A85B007
:1025A0000B4313720022214B1A60FFF765FD6B4647
:1025B000033318701A78002A03D1013CE4B2002CCE
:1025C000F3D11A78052A2BD91B780B2B10D001AC2C
:1025D0002000FEF77BFF6278A37812011A43144BA8
:1025E0001B681B070AD4112A02DD0120FFF7AEFF8A
:1025F0000122104B1A70FDF78CFDFEE790250E4C62
:10260000ED0528692368283B1B1A1B02002BEFDD10
:10261000112A02DD0120FFF799FF23686B60E7E7CD
:10262000012005B030BDC04600002040140000204D
:10263000C00000200C0000201800002070B5FFF73B
:10264000A9FF012817D1002314481549154C1A1861
:102650008A4216D3002314481449154C1A188A428A
:1026600013D30021134B144A934212D30021134B6E
:10267000134A93420FD3134B83F3088800F064F995
:1026800070BDE55804331560E1E7E5580433156083
:10269000E4E702C3E8E702C3EBE7C046F813002013
:1026A000AC140020E41F05100800002034000020B6
:1026B000B81F0510C0000020CC020020CC02002072
:1026C000F81300200060002070B58AB003AC05004C
:1026D0000E0019224349200000F0E5FD6846FEF790
:1026E000F5FE002D60D044233F4AA373117A433B8B
:1026F0000B4313724C23E3722C3B237292336374AB
:10270000573B2375394B3A4A1B68190C914208D143
:102710007020E17D1B018143E175E17D03400B43A6
:10272000E375344B1B68190C914208D13020617954
:102730001B0181436171617903400B4363712E4B2F
:102740001B68190C914207D10321E27D0B408A439B
:10275000E275E27D1343E3750422E37A694693430D
:10276000E3726B465B78897893400B43112B06DD4F
:10277000E37D1A43E275E07DC0B2FFF7C3FE80231C
:1027800090222404240C5B021C43D205D460D1683F
:102790001942FCD16B466A465B7892781B01134361
:1027A000112B01DDFFF788FE144B1A8B002AFCD099
:1027B00001221A8316329A8100221A61964207D0AA
:1027C00090231021DB0518691A6942400A42FBD0A8
:1027D000002D02D015220A4B1A700A4A0A4B1A60C1
:1027E0000AB070BDE41C051000002040E80700108E
:1027F00055AA0000E4070010B007001000001048C0
:102800000000C040CCBCECFC140000200822C02119
:10281000F8B53F4B3F4D9A803F4A0904136AFF20A9
:102820002B400B43C0211362136A09061B021B0ACB
:102830000B431362C02292009446384B64469A5868
:10284000374E82433F38024360461A501A58C02020
:102850003240000202431A51C122FF2792009C58C5
:10286000BC433F3F3C439C509C583F37344004435B
:102870009C509C582C409C509C582402240A0C4389
:102880009C500832944664469A58324002431A518A
:102890001A59C0242A402404224364461A511A5962
:1028A0001202120A0A431A51C42292009446644644
:1028B0009A58324002431A511A59C0242A4024041B
:1028C000224364461A511A591202120A0A431A5133
:1028D000C52292009C58BC432700C0242743C02433
:1028E0009F509F5824043E403043985098580540CC
:1028F0002C439C5098580002000A01439950012132
:102900000800FFF7E1FE074A074B1A6262B6F8BDFE
:1029100000001040FFFF00FF00ED00E000E100E0DC
:10292000FF00FFFF66000E00000090407047FEE7CA
:10293000704710B5FEF7C2FD10BD7047704710B567
:1029400004F0B8FC10BD000010B5FFF75FFFFFF703
:102950004BFDE1204002FFF7BFFC114800F00AFFE9
:10296000041E00D0FEE7FFF77BFD0220FFF778FD95
:102970002000FFF767FD0220FFF76BFD00F094FBDE
:10298000002803D00220FFF75DFDFEE700F0AEFE59
:1029900000F010FC002203201100FEF7DBFDF5E73C
:1029A000B01D051010B5084B1B78002B08D1FFF7A0
:1029B000DDFC002804D1FFF7E1FC0323002800D050
:1029C0000023180010BDC0464213002010B50400BB
:1029D00000F08CFCC822C1170023FDF74BFC2260DD
:1029E00000F084FC3222C1170023FDF743FC626033
:1029F00000F07CFCFA22C11792000023FDF73AFC9C
:102A00000020A26010BD70471B23F0B58BB006AC50
:102A10002370C5236370D523A370A523E37000231F
:102A20006371B433A3711A3BE371473323721123EB
:102A300063723A23A3729533E372802323736E2368
:102A40000226414D63731022383B21002800A373F6
:102A50002671E673FEF771FD3C4A3D4B29001B7859
:102A600030000092012200F002FE051E68D11B23F7
:102A70002370C5236370D523A370A523E370FC23C3
:102A8000A3716D3BE37152332372112363724A23A6
:102A9000A3728533E372A02310272373283B63734B
:102AA0003A3B6071A3731022A43321002948E373D9
:102AB0002671FEF742FD254B264A1888264B0495C1
:102AC000059302950195039700970123310000F0CB
:102AD00087FD051E34D11B232370C5236370D523C6
:102AE000A370A523E3703623A371AC23E3713533C0
:102AF0002372112363724B23A3728433E372802306
:102B000023731B2363730A236071A3733A002A3370
:102B100021001048E3732671FEF70FFD0B4B0D4AA1
:102B200018880E4B04950593042302930E330093EB
:102B3000039701950C3B310000F052FD002800D0B6
:102B400047200BB0F0BDC046E2130020CE1300209A
:102B500044140020BC130020B4130020D013002024
:102B600010B51724012386B0094A0A490A486C4463
:102B7000237012880988008803940024029301942A
:102B8000009300F099FDA04200D0472006B010BD90
:102B9000B4130020CE1300204013002010B542686B
:102BA00086B004AB52421A7012125A7002680E4973
:102BB0009A701212DA7082680C4852421A7112121C
:102BC0005A710B4A0988128800880024039306234F
:102BD000019402930093053B00F06EFDA04200D0EB
:102BE000472006B010BDC046CE1300204013002081
:102BF000D01300201B23F0B593B00EAC2370C52377
:102C0000E2226370D52322721122A370A52362727F
:102C1000E422E3700023E272402202267727A94DC6
:102C20006371D033A37122734E3B263AE371627312
:102C3000A3730A3A403B21002800E3732671A77270
:102C4000FEF77BFCA04AA14B29005B783000009284
:102C5000012200F00CFD051E00D02FE11B23237084
:102C6000C5236370D523A370A523E370E323A37169
:102C70003A3BE3713933237211236372E423E37225
:102C80002023237355236373273B6071A3731022A2
:102C9000753321008E48E3732671A772FEF74DFC51
:102CA000894B8B4A18888B4B04950593102303930B
:102CB0000C3B0293019500963300310000F090FC2C
:102CC000051E00D0FAE00E230CAF3B70F1337B7091
:102CD000814B35227B806B469B1818706B46013206
:102CE0009B1818706B467D4A38719A850BA9320083
:102CF0007B48FEF722FC774B01221988724B18881B
:102D00002E236B440893102306930F3B0493063342
:102D1000079505950395019300930297704B00F07A
:102D20007EFC051E00D0C9E01B232370C523637001
:102D3000D523A370A523E3700B23A3718423E37130
:102D40005E332372112363728B23A3725933E372B0
:102D50008023237344336373A43BA373CD23607137
:102D6000102221005A48E3732671FEF7E6FB564B0A
:102D7000574A18885B4B04950593102303930C3B2B
:102D8000029301950096013B310000F029FC051EDD
:102D900000D093E00F233B70EC337B709E239B01AC
:102DA0007B8035226B469B1818706B4601329B184E
:102DB00018706B46494A38719A850BA93200484809
:102DC000FEF7BBFB474B012219883F4B18882E2387
:102DD0006B440893102306930F3B04930633079527
:102DE000059503950193009302973D4B00F017FC66
:102DF000051E63D11B232370C5236370D523A370E5
:102E0000A523E3707323A3712D33E371423323723F
:102E1000112363728C23A3725833E37260232373EC
:102E2000553B6373C523A3730123607121001022F6
:102E30002748E3732671FEF780FB234B2A4C188842
:102E4000102303930C3B049502930195059400967F
:102E500033001F4A310000F0C3FB051E2ED10623AC
:102E60003B70F9337B709C239B017B8035226B4642
:102E70009B1818706B4601329B1818706B46174AE6
:102E800038719A850BA932001548FEF756FB0E4B98
:102E9000218818882E236B440893102306930F3B38
:102EA00004930633019300930795059503950297C4
:102EB0000B4B012200F0B3FB002800D0472013B0D9
:102EC000F0BDC046E2130020B613002044140020D9
:102ED000BC130020CC1300202F2700000429000081
:102EE000D2130020BA130020B8130020162310B507
:102EF00086B06B4418800A4A0A490B481288098830
:102F00000088002403930223019402930093013B61
:102F100000F0D2FBA04200D0472006B010BDC04652
:102F2000CC130020B61300204013002010B50B4B2B
:102F300086B01A880A4B059019880A4B0024188815
:102F400005AB03930323019402930093023B00F02B
:102F5000B3FBA04200D0472006B010BDBA1300203A
:102F6000B613002040130020162310B586B06B4422
:102F700018800A4A0A490B481288098800880024E8
:102F800003930223019402930093013B00F094FB0E
:102F9000A04200D0472006B010BDC046B8130020A4
:102FA000B6130020401300201FB5374B1B88013398
:102FB000984214D101A8FFF709FD002802D101A809
:102FC000FFF7ECFD314B1888002806D000F06AFBB3
:102FD000002802D00220FFF735FA05B000BD2C4BC7
:102FE0001B880133984219D100F080F90F22002389
:102FF000C117FDF75FF9274A0023FDF73BF91B22B4
:10300000002380185941FDF77FF92349FDF79AFA0B
:10301000FDF7B8FB00B2FFF769FFD3E71F4B1B8832
:10302000013398421AD100F061F9FA22002392008C
:10303000C117FDF73FF9174A0023FDF71BF9FA22E4
:103040000023920080185941FDF75EF91449FDF7FD
:1030500079FAFDF797FBFFF769FFB3E7114B1B8880
:1030600001339842AED100F041F964220023C11728
:10307000FDF720F9074A0023FDF7FCF8C330FF30C5
:1030800080B2FFF771FF9DE7D013002040130020AE
:10309000CC130020FFFFFF7F00002041BA13002067
:1030A0000000C842B8130020F0B52C4C8DB02100B0
:1030B000062208A800F0F7F8A11D07240AAD220097
:1030C000280000F0F0F808AA0621002000F009FB13
:1030D000002841D10421013000F0FFFA00F0E8FAA5
:1030E000002839D11A261E236E446B4407AF019382
:1030F0000100009733002200013000F0DDF90028C4
:103100002AD13A88318803000395029401900094F3
:1031100000F0D2FA00281FD1114B01210393102394
:10312000049002900193020003000094080000F054
:10313000DBF9002810D1FFF767FC00280CD1FFF75E
:1031400059FD002808D1C821013003F072FBC0B23C
:10315000002801D1034B18700DB0F0BDFD1C051007
:1031600040E201004313002030B508248BB0104921
:1031700008AD22000D31280000F095F8002108006C
:1031800003F0D6FA0020F022C821069005900490A2
:1031900003900295019400900123D200C90000F031
:1031A000EBF9002802D00220FFF74CF90BB030BD3C
:1031B000FD1C05101FB5184C2378002B03D0FFF71A
:1031C000D3FF00232370154C2378002B1AD0002343
:1031D000C8210120237003F02CFB002801D001231B
:1031E00023700F4B1B68002B0CD00020FFF74FF90A
:1031F00001A8FFF7EBFB002802D101A8FFF7CEFCE6
:10320000FFF701FC074B1A78012A03D100221A703C
:10321000FFF7A6FC1FBDC046461400204313002044
:103220003C130020421300200122024B1A60024B83
:10323000198070473C130020401300200020012219
:10324000044B10B51860044B1A70044B1880FFF73C
:10325000F9F810BD3C130020461400204013002054
:1032600010B50800FFF7A0FE10BD0000012801D135
:10327000014B18707047C0464313002070477047D9
:1032800010B500F019F810BD30B50024A24201D1EC
:10329000002005E0035D651C0C5DA34201D0181BF6
:1032A00030BD2C00F2E7002310B59A4200D110BDCA
:1032B000CC5CC4540133F8E710B5884202D98B18AE
:1032C000984208D300239A4207D0CC5CC4540133FF
:1032D000F9E78B5C8354013AFBD210BD03008218DE
:1032E000934200D1704719700133F9E7154B10B5BF
:1032F0001C68A36B002B15D1182000F033F8124B7B
:10330000A0630380114B01224380114B8380114B3A
:10331000C380114B0381052343810633838100233E
:1033200002614361A46B0D4A206961690C4BFCF793
:10333000C1FF0122002380185941206161614800CA
:10334000400810BD481400200E330000CDABFFFF35
:10335000341200006DE6FFFFECDEFFFF2D7F954C81
:103360002DF4515810B5034B0100186800F004F813
:1033700010BDC04648140020032370B5CD1C9D43EA
:10338000083506000C2D1ED20C25A9421DD8300090
:1033900000F062F8254A14682100002919D1244C54
:1033A0002368002B03D1300000F044F8206029008E
:1033B000300000F03FF8431C2CD10C233000336068
:1033C00000F04BF803E0002DDFDA0C23336000201F
:1033D00070BD0B685B1B1AD40B2B03D90B60CC1888
:1033E000256003E08C420ED163681360300000F06A
:1033F00034F8200007220B30231D9043C31AE7D076
:103400005A42E250E4E74B6863600C00EEE70C00C0
:103410004968C2E70323C41C9C43A042E0D0211AA0
:10342000300000F007F8431CDAD1C6E7441300204F
:1034300048130020002370B5064C050008002360E7
:10344000FEF7A6FF431C03D12368002B00D02B609E
:1034500070BDC046F413002070477047F0B50546B4
:1034600000200F46079E059C174309D0202905D34D
:103470000127BF03BA4201D8914201D94220F0BDD1
:10348000194621430AD09C42F8D309498C4203D003
:103490000849A41F8C42F1D2062BEFD3002D03D094
:1034A000022D01D0032DE9D1032EE7D8F0BD000095
:1034B000FFFF00007B0C00007CB5069D079C0028E8
:1034C00005D0860705D1460703D4060701D442205C
:1034D0007CBD002903D0012901D00229F7D1009534
:1034E000019400F037FB7CBDFFB58DB0179F169D92
:1034F0001446060004D0012E02D0422011B0F0BDC7
:103500000E98002801D00128F7D1E81F0A28F4D22C
:10351000102FF2D8AF42F0D31898002801D001281C
:10352000EBD1144919988842E7D81A98002801D09D
:103530000128E2D10BF003FB012804D010982043AE
:1035400006D01120DAE7022CD7D810980128D4D859
:10355000684606700E994170047310994173857026
:10356000C7701899C1711998029068461A990AF0A3
:1035700001FDC3E73F420F00FFB587B0109D159EC8
:10358000169C01930295009407A807C81F4633466E
:10359000FFF764FF00280ED11398149903AA06942C
:1035A00043C21198129901900095029107A807C88B
:1035B0003B4600F02DFC0BB0F0BD70B51C46134629
:1035C0000D46012C03D0022C03D0422070BD0222F4
:1035D00000E010221946FDF7B0FF2C70002070BDEE
:1035E000F0B587B01C460B46054600A9023101A87C
:1035F0000C9F0D9EFFF7E1FF00280ED16846058065
:1036000084828775C6750E9901760F994176109957
:1036100081766946119801F06DF907B0F0BDF0B5FB
:103620008BB09C460C4605461346624601A806A987
:10363000139F179EFFF7C1FF002816D1129807901D
:1036400068460580448008A8077014994170159950
:1036500081701699C170067168461199818210991E
:10366000C1826946189801F095F80BB0F0BD70B5AD
:1036700086B014461D460A4603466946881C0A9EC3
:10368000FFF79BFF002804D1012C04D0022C02D0AC
:10369000422006B070BD23462A466946304601F0F6
:1036A0006FFBF6E710B50022114601F019FC10BDC2
:1036B00010B501F063FE10BDF0B585B084460AA8D0
:1036C000F0C868468581C68103A8019002970094DE
:1036D000604602F02BF905B0F0BD10B502F056FEC1
:1036E00010BD10B502F074FE10BD000010B503F05F
:1036F00047F91E4C4721206849014118097B0029E0
:1037000009D1A0300079C00729D002F0CBFF02F028
:103710007BFF0BF02FFA00F003F9206801464031DF
:103720000A78C9798A4319D13E21095C002915D14B
:103730000F490A88120711D50922D2061269497A5F
:10374000836AC900591809231B02C018806D801AAA
:1037500000020012814201DA08F06EFB10BD00F099
:1037600037FB01F0A5FC09F08DFAD0E740140020EA
:10377000C000002010B5837F01220024920241681E
:10378000082B03D94224914202D310E0914201D286
:1037900042240CE0014634220648FDF7CEFE00F03C
:1037A0007FF8002801DA482401E000F029F92046DA
:1037B00010BD0000CC0200203EB5174D1548296809
:1037C000827F0846A0310A73002460300476447674
:1037D0008476E122C276802202770222427730206C
:1037E00008704C7002AA01A96846FDF795FE68466C
:1037F0000078A22201016846007A891C0002014378
:10380000684600790003014328681152A030047112
:103810003EBD0000CC0200204014002070B503F033
:1038200093F807F09BFE06F08FFD0BF0BFFF03F04F
:1038300061FA184C18492068184D40188110012071
:103840002A68C0021018C166616889080167A1680A
:10385000890841670AF01AFB1D2029688001228B24
:1038600008180287628B4287A28B4286628C82860E
:103870002046203002783B20400108188275002144
:10388000017000F065FA02F0CDFE02F055FE0BF07B
:10389000F7F970BDCC0200200000FCEF40140020BE
:1038A00070B50025ED4302F0FAFE01282ED000236A
:1038B00018490322888BFF24401E10438A7F4D3411
:1038C00062438218088B282460431218488B3024E6
:1038D000604312180846203040782C2460431018AA
:1038E0000D4A181884184869A0420DD10B4884422B
:1038F0000AD90D6902F0D3FEC1B2284605F0A8FA34
:1039000005F0D6FB401B251A284670BDFF23B533B2
:10391000CEE70000CC02002039190000580A000050
:10392000F8B52C4F3C68206E5C34401C002814D045
:10393000002529480023C07B00283ED00926F60632
:103940002648002D1CD000210A460B464169521C16
:10395000994204D1002902D004E00125E9E7204B77
:103960009A42F2D32160006960603069A168000268
:10397000090E000A09060143A16000F033F81DE0BA
:103980003169A2680902090A150E08D0018BC9071E
:1039900012D04169216000696060E37210E0881A0A
:1039A00000027D2300121B03984205DD100E000665
:1039B0000843A06000F016F8F8BD6360002DFBD04E
:1039C00003CC08F069F9FA2008F056F939688862E2
:1039D000F8BD000040140020EC0200200000104858
:1039E0008813000004490020086104480121006890
:1039F0006030C17170470000000010484014002082
:103A0000F8B5062632484025056032480027078071
:103A1000A9050920C00641602F4A91600168016034
:103A20002E48032104694269601E08433946401C40
:103A3000FDF787FD02F033FEC1B2204605F008FA1B
:103A400005F036FB05F040FB04F0E0FB24491720AD
:103A50008881244C2068421901465770FA208862F8
:103A60002820107002F019FE012805D120681022CC
:103A700040300178114301700BF061F8012805D145
:103A8000206880224030017811430170206801468F
:103A900040300278324302700020C0430866FEF7CF
:103AA000D4FAFFF789FEFFF7B9FE20680121203024
:103AB000017707214177012002F068FC04F00AFC3D
:103AC000FFF72EFF02488038056002210160F8BD33
:103AD00080E100E0C000002040000048CC0200204F
:103AE000000010484014002038B5184A14682246D7
:103AF000BA32AE34A378DD0701D001290AD05B07C2
:103B00000CD501290AD0217949070BD5E17A002982
:103B100005D007E0E07880210843E07038BD01213E
:103B2000E172508020794106090FF7D078210840D2
:103B300069460870002048706A460221422000F061
:103B4000A9FA207987210840207138BD401400204F
:103B500070470000FFB50C4678A103C995B00191EC
:103B60000090002108A801730321C902684641861C
:103B7000012108A8734E017435681746AE350DF063
:103B800077FE002808D170493068401806F0BEFE64
:103B9000A878002802D0462019B0F0BD0BA81599CE
:103BA00000F052F90028F7D1072010A90871012C64
:103BB00005D0022C0AD0002C0ED04220ECE708A839
:103BC000017B1020014308A8017305E011A90BA88F
:103BD00000F049F90028DFD110A8027901230CA9CF
:103BE000284601F0CDF800287ED1022229461898F7
:103BF000FDF7A3FC298868468181152149020182CD
:103C00000784012686734E2108A881700024C470A1
:103C1000067107214171867103A902A800F06AFEAE
:103C2000002861D1022202A91E98FDF786FC082F08
:103C300002D26846478502E0082069464885694601
:103C40000C850B4628880AAA098901F03BFE00284A
:103C50006DD13E49684601820227078408A8847115
:103C600003A902A800F046FE002860D1022202A9A2
:103C70001F98FDF762FC68460470694644704F85E2
:103C80000B4628880AAA098901F01CFE00284ED19B
:103C900008A8007BC00723D02C496846C91C0182B4
:103CA0000821018408A88770047103A902A800F004
:103CB00021FE00283BD1FF216846C1718171C1708E
:103CC0008170417001704471047169460820488513
:103CD0000B4628880AAA098901F0F4FD002826D19C
:103CE00008A8007B800600E021E022D529886846EC
:103CF00081811649A53101820684867308A88770E0
:103D0000C470047107214171847103A902A800F0F5
:103D1000F1FD00280BD169460E700C854E850B46CF
:103D200028880AAA098901F0CDFD002801D0472082
:103D300032E708A8007BA87000202DE7626C75654B
:103D40006E72672140140020DE060000012A000088
:103D5000034800210068AE30C170817070470000D8
:103D60004014002038B50246174801240068AE30E0
:103D7000022A1FD0052A03D0072A07D00B2A20D1F8
:103D8000084609794088FFF7AFFE1AE00079002461
:103D9000020600D50124820703D1C20601D48006A1
:103DA0000FD5084600216A461170694600F05EF89A
:103DB000044606E08178490703D50179FB221140CA
:103DC0000171204638BD00004014002070470000FB
:103DD0001FB50E480468AE34E078010612D5A1780C
:103DE000C9070CD0800708D50420694608736846C7
:103DF00002F0A2FE022000F025F90020E07040064B
:103E0000400EE07000F02EF81FBD000040140020AE
:103E1000F0B58DB00C4616A9E0C9002108910991B2
:103E20000A910B911599049105A9E0C112A962C9E3
:103E30000093019113460146039602952246012004
:103E400000F046F80DB0F0BD0A07920F01D04220F5
:103E500070478A07FBD002788907890F0A430270EE
:103E600000207047704742207047000030B5174B64
:103E7000047A1B68C268AE331B799D06AD0F04D16E
:103E80000078042801D000200BE0012030BD401C48
:103E9000C0B2155C012D08D01518203DED7F281803
:103EA000C0B2A042F3D3087830BD401CDD07012426
:103EB000C0B2002D02D0105CC00703E09B07F2D512
:103EC000105C80070028EED00C70ECE74014002056
:103ED000FFB595B00E46054620210CA8FEF77EFAE8
:103EE00000200490564800270468681EAE34042859
:103EF00002D8A078C0070BD0062D02D0002D0AD022
:103F000002E0A078800703D5E0784006800E0AD052
:103F1000462019B0F0BDA0788007F9D0E0784006BF
:103F2000800EF5D00FE0002D0DD0012D20D0022DF8
:103F300028D0062D33D0032D33D0042D37D0002EBA
:103F40003BD04220E5E7002007F082F90028E0D1CD
:103F5000E078800708D5042069460873684602F0B7
:103F6000EBFD022000F06EF80120E0700020D0E7A9
:103F7000012EE6D0042EE4D01F980028E1D10627B8
:103F8000042008E0012EDCD0042EDAD01F9800288F
:103F9000D7D105270220E0700120049010E04020D6
:103FA0000DE0022E01D0032ECBD1082007E0012E18
:103FB00001D0042EC5D1102001E004272020E0709C
:103FC00000230BAA19461E9806F002FB030002D03C
:103FD00000F0E0F832E01022002107A8FDF7B1FA66
:103FE00007A86C46279B269A1F990FC42B4630467C
:103FF000189A179900F088F80300E9D108A8017B06
:10400000C170259803AC049B289A29990FC422AB50
:1040100007CB02920091019039460CA8209B219A6F
:1040200000F0C2F80300D3D107A807F025FC030075
:10403000CED1012007F00CF90300C9D1184668E77A
:104040004014002010B50446C1061148006803D58D
:104050001522BF210C4006E01B2189014118497E31
:10406000C90710D012222107890E08181121C90191
:104070004018C06F002321460AF04EFE010004D014
:1040800020460AF035FE002010BD072010BD0000BC
:1040900040140020F8B5891ECDB20646A81C0321A5
:1040A0000843401C8308174817460068F10603D5EB
:1040B0001C22BF210E4008E01B2189014118497EC6
:1040C000090601D40020F8BD19223107890E08180D
:1040D0001121C9014018C06F31460AF01DFE0400CD
:1040E0000ED03978217179786171A5712A46B91C91
:1040F000E01DFDF722FA214630460AF0F9FDE1E71E
:104100000720F8BD40140020F8B5204B204D1B6857
:1041100001265B19069CB6030093002814D00428DE
:1041200012D0022813D0032811D006252B460128CF
:1041300010D00F4617430DD0914203D8202901D348
:10414000B2420AD94220F8BD30256023EFE7A0250E
:10415000F023ECE72580638001E0218062802071FC
:104160000798A071089820720998002805D0014688
:10417000204606220930FDF7E0F90720607100981B
:104180002030807B60710020F8BD000040140020CA
:1041900008090000034881220068A030417C1140DA
:1041A0004174704740140020F8B505463D481E464E
:1041B0000068079F0024AE301346002905D0022274
:1041C0002A7001226A70A9700324002E10D0807812
:1041D0008006800F0CD13019401C1F2852D82E5554
:1041E000641C281932461946FDF7A7F9A019C4B274
:1041F000002F0DD03819401C1F2843D82F55641CA0
:10420000E4B228193A460699FDF797F9E019C4B2C5
:104210006846008C00281BD06846808C002817D088
:10422000601D1F282ED805202855641CE0B21221DD
:104230002954401CC4B228190646022208A9FDF7D9
:104240007CF9B01C022209A9FDF777F9241DE4B21C
:104250000C98002810D0E01C1F2813D802202855E5
:10426000641CE0B20A212954401CC0B22918401C29
:10427000C4B2084607F0C6FC0B9800280CD0001901
:104280001F2801D94220F8BD28190B9A0A99FDF779
:1042900054F90B982018C4B22146284607F048FA72
:1042A000F8BD00004014002010B50D4900050B6852
:1042B0000521490259188A690021000DA0331B7B92
:1042C0000AE04C01145B2405240D844202D148010C
:1042D000801810BD491CC9B28B42F2D8002010BD15
:1042E00040140020F8B5069C1F4615460646002CD3
:1042F00013D0A06802220D30FDF71FF9E81E82B22C
:104300003B460721204606F0ADF8E580A068012E67
:1043100005D01D2101730020F8BD4720F8BD1B21E9
:10432000F8E70000F1B5FFB08BB001246002059002
:104330000027CC4807970168E320C00008180390C5
:104340008A98C74D0005000D0AAA05A908F011FAC0
:104350000690002872D104260AA805994218203A2E
:10436000D27F0B2A23D00026002004900AA88119AE
:10437000022201A80291FDF7E0F86846818809ABA6
:1043800008AA039801F098FC012817D002287DD0D4
:1043900068468088854200D30546844200D920467D
:1043A000044602988078012871D013363BE1491EFB
:1043B000761E36040591360CCFD1D5E708980090CB
:1043C000002F79D10099022228310298FDF7BDF81B
:1043D00000281ED100982030017B0298807881420D
:1043E00017D1012808D10098029902220830C91C6F
:1043F000FDF7ABF8002815D002988078022808D184
:104400000098029910220830C91CFDF79EF8002878
:1044100008D00098008DA84200D80546A04200D2DE
:104420002046044602990AA88978012907D0133644
:104430000599B6B28E4204D3012707E005E1761D47
:10444000F6E78119022201A8FDF777F80399009891
:1044500008318E462EE084466946026A8B882030F9
:104460000DE0918B994203D3012F7DD199427BD9E5
:10447000A94200D80D46A14200D30C4612688242E0
:10448000EFD10498002817D1604601E015E0BFE0A5
:10449000006870450ED0018D994203D3012F09D1D8
:1044A000994207D98D4200D30D468C4200D80C4664
:1044B000012F59D17045CED1BAE008980090002F55
:1044C00072D1009902221C310298FDF73EF80028B3
:1044D0001ED100982030C17802988078814217D18F
:1044E000012808D10098029902220830C91CFDF762
:1044F0002CF800281AD002988078022808D1009859
:10450000029910220830C91CFDF71FF800280DD0B1
:104510000098808BA84200D80546A04200D22046D1
:10452000044602988078012826D003E0029880781B
:10453000012805D013360798B6B201281ED021E015
:10454000009849490089884216D18A98FFF7ACFE45
:104550000146009800F08AF80099098C48430099B8
:1045600089694018022200E038E00299491DFCF7F1
:10457000E4FF01200790D4E7761DDCE7B61C00209D
:10458000B6B207900598864201D3012705E00AA834
:104590008119022201A8FCF7D0FF039A0099083282
:1045A00009980968944630E01AE086466A4693887E
:1045B00020300DE08A8B9A4203D3012F0ED19A420C
:1045C0000CD9AA4200D81546A24200D31446096865
:1045D0008142EFD1049800282AD102E00120049002
:1045E00026E07046006860450FD0028D016A9A424D
:1045F00003D3012F09D19A4207D9954200D315461A
:10460000944200D81446012FE8D16045CDD10FE087
:104610000298C078022805D102980079292801D192
:10462000B61CB6B2761D0598B6B2864200D30127F5
:104630000598811B042902D3864200D294E604988F
:104640000028FBD1A54203D906987FB00CB0F0BD7D
:10465000224629468A9801F073FB0690F5E7000090
:10466000FFFF0000401400200229000030B5024680
:1046700023239B5C0020012B1AD112890D4B9A42F7
:1046800016D10D4A052312685B02D318A0329B692C
:10469000127B0AE045010C885D5B24052D05240D85
:1046A0002D0DAC4204D0401CC0B28242F2D8002092
:1046B00030BD00000229000040140020830810B51E
:1046C0000A4800210268052040021018A0328069C3
:1046D000127B07E04C01045B002C01D0994204D00E
:1046E000491CC9B28A42F5D8002010BD40140020F0
:1046F00010B50446022000F033F80D48002102688E
:10470000052040021018A0328369107B05E04A01A1
:104710009A5A002A04D0491CC9B28842F7D810BD61
:1047200048011C52C018026904210A43026110BDED
:104730004014002010B504460146042002F0FCFBA2
:10474000002809D00548E3210068C9004018214627
:104750003C300BF045F9432010BD00004014002010
:1047600004490A683B21490151180A7802430A703A
:10477000704700004014002000B51138C0B2FFF7A8
:104780009DFF002804D001220169520511430161F7
:1047900000BD0000F3B597B00D8848880590081D4E
:1047A0001DC80DAE1DC68C8ACE8A087E1390C869BE
:1047B0002031019008780090487804908878039020
:1047C000C87802900F7900F0BFFD002817D10120B2
:1047D000400284425FD8B4425DD8002F01D1B44278
:1047E00059D114A9284601F095FA002806D115AA36
:1047F0001499059801F07EFA002802D0602019B0C3
:10480000F0BD149D11A92846183006F0D3F810A861
:104810008088002810D0284612A9203006F0CAF857
:1048200010A8838800892A8D1818696A10188A8B45
:10483000904203D16120E2E74820E0E715982C4B35
:1048400002899A4227D12322125C012A23D10068CF
:1048500000681690139801281FD16846808E29227F
:104860001202801A030001F04AFD0604180404072E
:104870000A18022C0FD110E0072C0CD10DE0042CEB
:1048800009D3E00707D1012F07D1A64203D3042E95
:1048900001D3F00701D04220B1E702980B90039BAF
:1048A000049A0A9309920098019A0C970890069628
:1048B000059407920DA81DC8019002A81CC013986A
:1048C0000B4600902A461699179800F0AFF9002879
:1048D00095D168460649808EFF31884205D01798E9
:1048E000018800200A4601F02BFA002087E700002B
:1048F00003280000F3B5A5B008881A9088780C4604
:1049000011901022091D13A8FDF760FDA08A1090D8
:10491000A17D68460172E07D0F90207E2090677E29
:10492000A07E1F90002006460146129020A801811B
:104930000F20BB4C2390E3212068C9004018199038
:1049400000F002FD00280BD1012110984902884295
:104950005FD821A91A9801F0DDF9002802D0602063
:1049600027B0F0BD2198179005F0C8FF1A9988422A
:104970000CD102A801901698009013AD0ECD11989D
:1049800005F084FF002801D06320E9E76846017A3A
:104990008806800F05D0012012902068A030007B8F
:1049A0004600C80703D01298401CB61C1290080697
:1049B00003D51298401CB61C129017980DA91830F8
:1049C0001D9005F0F7FF6846129C808EA41CA04243
:1049D00037D317980EA92030019005F0EBFF6846F9
:1049E000018F00290DD01798179A6B46406A9B8E4D
:1049F000128D5918808B5118081AA04201D26120DB
:104A0000AEE71798846911982568012803D0022819
:104A100003D04220A4E7052000E01320E0832A46CB
:104A200039460F9805F07CFF422899D0199FE28BF8
:104A30004037788B398B411A1098101880198142B1
:104A400001DA48208CE70EA9019805F0B3FF68460B
:104A5000008F0028179802D0406A808B00E0008DFC
:104A60002599401C0880259801210088A08325985D
:104A700002220088401CA8836A48208120462030FA
:104A80001790C1700021817081711998398B406D28
:104A900040186946A061097A0170A06929461C3155
:104AA000401CFCF74AFD11980128A0697ED0102215
:104AB00013A9C01CFCF741FD2846102213A9083099
:104AC000FCF73BFD388B133038832E462036119887
:104AD000F0701098E8831F98B07010982084109898
:104AE00028841998398B406D4018A8610021109ACC
:104AF000FCF727FD398B1098081838831799012087
:104B0000087117990020487130716846007A810752
:104B100001D50121317101070227002902DA31791B
:104B200039433171410703D5317904221143317181
:104B3000400603D530790821084330710F98707111
:104B40002098B07121461D9805F05DFF214601981F
:104B500005F03AFF29461D9805F055FF29460198B2
:104B600005F032FF1298002841D068461A998181D9
:104B7000A18BC18107844784012408A8047122A85D
:104B80000A9008A88473239941730F993820014033
:104B900008A801730721C173002505746846007ACF
:104BA000C00708D020486946088200E02AE003A92F
:104BB00024A8FFF7EFFD6846007A8006800F07D033
:104BC00019486946401E088203A924A8FFF7E2FDA0
:104BD0006846007A00060AD5292109026846018242
:104BE00008A84473057303A924A8FFF7D3FD2598EB
:104BF00001881298401C081882B2002001F0A0F829
:104C00000020ADE6022213A9C01CFCF796FC284642
:104C1000022213A90830FCF790FC388B401D53E7A3
:104C2000401400200328000003290000FFB552486B
:104C3000E322006887B0D2008218069210AA109B67
:104C40000126169F9288012B04D14C4B9A4201D128
:104C5000A030067B069D34464035688B2B8B7C4309
:104C6000C31A099820300390A34222DA48200BB0DF
:104C7000F0BD2320405C012819D108896C462080B2
:104C800098420CD03D4C641EA04208D0641CA04247
:104C900005D0641CA04202D0A41CA04207D1374C0E
:104CA000FF3CA04201D0904201D16220DFE70968B9
:104CB00001E029231B0203988142DAD109981B994C
:104CC00084691898224605F02BFE4228CFD01C9804
:104CD000012804D11598874201D24220C7E71598D0
:104CE000E083204620301C990590817027840A9823
:104CF000808B401CA0831098012814D020461022DD
:104D000011A90830FCF719FC05991098C87006988D
:104D1000298B406D4018A061298B384670430818D4
:104D2000288300250FE011A80FC808340FC4183CD1
:104D3000EAE72846A16978430818159A1799FCF7FD
:104D4000FCFB6D1CEDB2B542F3D305991898487180
:104D500005991998087105991A988871099821463A
:104D6000183005F050FE2146039805F02DFE0798F7
:104D7000A18B018000207AE7401400200229000066
:104D8000FFB58FB014460E78102205A8891CFDF7D8
:104D90001DFB5048E3210068C900451800F0D4FA13
:104DA00000281ED1002C57D0012E09D16846808AD8
:104DB0004949884204D12846A968083081424BD12C
:104DC0002846103029690390814209D00AA9284653
:104DD00005F0F0FD6846018D601E0D90814202D203
:104DE000482013B0F0BD284608300CA9049005F007
:104DF000E1FD6846008E002814D0EF680AA9384605
:104E0000183005F0D7FD384620300CA905F0D2FD4A
:104E10006846398D008D09186846008E401C0818B8
:104E200087B200E0012701200004C01BA04201D28C
:104E30006120D6E72C69286801901298012802D0D9
:104E4000022803D008E00520C00200E02348608566
:104E5000012E03D0022E05D04220C2E720460830A2
:104E6000022202E020460830102205A9FCF765FB6B
:104E7000204631462030064601730F9821460780B0
:104E80002785039805F0BFFD2146049805F09CFD99
:104E900027461837E7616662A76126620D9884B2DB
:104EA0000BE02846019905F0AEFD3846019905F062
:104EB0008BFD2868641EA4B20190002CF1D10F98DC
:104EC00001880D98081882B2002000F039FF0020F8
:104ED00087E70000401400200118000001280000AE
:104EE000F7B5064639480F460068E321C900441863
:104EF00082B03046FFF7D8F9050064D02046243050
:104F000000900AF083FD00285DD1286900035AD57E
:104F100000980AF035FD044653E0A088B0424FD116
:104F200020223146002005F0EDF906001CD0A068D3
:104F3000002F017B427B19D0334604980BF0C4F854
:104F4000002001212A69C9048A432A6100282ED041
:104F5000692806D03046FFF7EDFB29691020014390
:104F60002961002005B0F0BD6420FBE70A2906D0C6
:104F70000C290AD00E290ED0082912D023E032467F
:104F8000214628460CF056F9DBE7324621462846F2
:104F90000BF08CFDD5E73246214628460CF080F810
:104FA000CFE73246214628460BF012FFC9E72146DB
:104FB00000980AF032FD0121204605F0FFF9C9E70B
:104FC0002468002CA9D14120CCE700004014002027
:104FD00002460948E3210068C90041188868083181
:104FE00003E0038D934202D200688842F9D18842DF
:104FF00000D100207047000040140020034610B587
:105000000F48E3210068C90041188868083103E0AF
:10501000148D9C4203D8104602688A42F8D18A4215
:105020000CD1018D994209D20146026A20318A428F
:1050300003D0416A898B994200D2002010BD000044
:1050400040140020024610B50B48120501680520E7
:105050004002081883690020120DA031097B07E087
:1050600044011C5B2405240D944203D0401CC0B2B3
:105070008142F5D810BD000040140020F7B5054668
:10508000174601980AF07CFC2E050446360D0CE00C
:10509000A0882568B04207D1214601980AF0BDFCDE
:1050A0003946204605F08AF92C46002CF0D1FEBD89
:1050B000F0B58BB0002064490290E3200A68C0007C
:1050C000141872B610464030C57902231D43C571CD
:1050D00062B625464035287AC0077DD005204002BB
:1050E0001018002687694AE071017A5A002A44D0D4
:1050F000C919069109694A021FD48A0227D50221DB
:1051000004910699012309880905090D03911B21C2
:1051100089014118C97E89070FD51121C9010830BD
:1051200040182322C06F022109F0F6FD010004D0CF
:10513000039A8A80049809F0DBFD069800880090A5
:10514000069800F083F8009808F091FE15E04807F3
:1051500013D5069800880005000D08F064FE0028AD
:1051600005D1069800880005000DFFF7DBF80699C9
:1051700004200969814306980161761CF6B2324821
:10518000AC210068095CB142AED800F001FF2046B6
:10519000243006460AF03AFC012802D0012000F033
:1051A000F9FD204618300AF031FC012802D0002019
:1051B00000F0F0FD3C3420460AF028FC01280FD016
:1051C00002A920460AF04BFC0420029901F0B4FE2B
:1051D0000028F0D0204600E034E002990AF0EDFB10
:1051E000287A00062ED530460AF010FC012829D175
:1051F000002005F063F8A98B23314909491CC9B285
:10520000FBF732F800281DD00F4D04462868112105
:10521000C90108304018422601233822C06F3146A8
:1052200009F07AFD01000DD000228A80CC80304642
:1052300009F05EFD3B212A68490151180A78802057
:1052400082430A700BB0F0BD40140020F0B5044654
:105250003C48E3210068C9004518218A85B08904CB
:105260001AD5022104911B2189014118497F412649
:1052700027880123C9070FD01121C9010830401820
:105280003122C06F022109F047FD010004D08F8058
:105290008E71049809F02CFD2946208801221831CE
:1052A000FFF7ECFE2946208801223031FFF7E6FEA9
:1052B0002946208801222431FFF7E0FE2946208874
:1052C00000223C31FFF7DAFE20880005000DFFF7D1
:1052D000B9FE8500294611316846017301F02CFCA6
:1052E000294612316846017301F026FC2946133124
:1052F0006846017301F020FC68461435057301F01F
:105300001BFC208800F028FA208801050D48090DB3
:105310000268052040021018828F914201D10021BD
:105320008187E069002802D0012105F047F820229A
:1053300000212046A568FCF704F91720A5606080CD
:1053400005B0F0BD4014002010B50B48E321006803
:10535000C90044184034207AC00709D0002004F066
:10536000ADFF217A890701D5002803D0002010BDA8
:10537000472010BD642010BD40140020F0B55FA090
:1053800099B000685E491590E3220868D20084183D
:1053900005225202821892692546403514922A7AD3
:1053A000D20702D0622019B0F0BDAA8B01235B02A4
:1053B0009A4201D9AB8303E0172A01D21722AA83AC
:1053C000149AA0301392067B0DE0761EF6B2139865
:1053D00071010F18B8680F90384620220021FCF7A1
:1053E000B0F80F98B860002EEFD120460830E0608A
:1053F0006460A06024600830139060612061FF2227
:10540000002108300AF0D1FA2046FF220021243082
:105410000AF0CBFA2046AA7F002130300AF0C5FA04
:105420002046FF2200213C300AF0BFFA00222A72F7
:1054300010461721324B05E0149E4701BE19401C4F
:105440007180C0B21E68A036367B8642F4D8002038
:1054500028832F8C688C0026149008E02820E16CAB
:1054600070430918204605F0AFFA761CB6B2BE426A
:10547000F4D3002608E03020216D704309181398FA
:1054800005F0A2FA761CB6B214988642F3D3012036
:10549000FFF766F90124684604701A4941802346E3
:1054A000042269460CA8FFF76BFC002822D168464D
:1054B000018E81821449018304260685847520218A
:1054C00008A881720024C472047307214173847395
:1054D00005A90DA8FFF70EFA00280BD1684604872E
:1054E0004687818E15AB0EAA008E00F0EBF90028DE
:1054F00000D158E700202872472054E70000FFFF42
:105500004014002001180000052A0000F8B50446E8
:105510007D480E460068E321C90047184820C05D59
:10552000C0077BD0B088FEF7BFFE0546012C02D035
:10553000002C75D0E6E0002D0CD0286941074AD434
:10554000B268F188147B0029F4D062060CD5688813
:10555000884201D20121B2E0D22C01D0522CF9D1E3
:105560003846314618303FE0A106890E1E293ED844
:105570001E2C21D101071FD50821884328612988C5
:10558000012005F009FA0121304604F017FF5E48BA
:1055900011210068C9010830401842242D880123D8
:1055A0003922C06F214609F0B7FB010003D08D807E
:1055B000204609F09DFBA5E0E1070AD01D2C10D084
:1055C0001B2C0ED0410529D4012189020843EE612C
:1055D00092E0C00601D54520F8BD2988002005F0DD
:1055E000C9F93846314624300AF0FAF98AE02988A8
:1055F0002022002004F086FE05000FD00121304655
:1056000004F0DCFE2B460022214606200AF05CFD59
:105610002846FFF78FF875E000E001E04120F8BD73
:10562000B068047B1D2C3AD01B2C41D000213046A1
:1056300004F0C4FE032C46D0052C44D0072C42D0E5
:10564000092C40D00B2C3ED00D2C3CD00F2C3AD046
:10565000112C38D0132C36D0172C34D0192C32D032
:10566000012C30D0022C35D0042C33D0062C31D074
:10567000082C2FD00A2C2DD00C2C2BD00E2C29D05E
:10568000102C27D0122C25D0162C23D0182C21D04A
:10569000522C1FD0D22C1DD01E2C2FD032E0002D2A
:1056A00003D02988012005F065F93146022001E088
:1056B0003146012000F05EFD002823D00021304655
:1056C00004F07CFE1EE029691020814329612988AD
:1056D000002015E02869402188432861010511D583
:1056E000FF210131084328612988022005F042F991
:1056F00001212869C9028843286103E02988032021
:1057000005F04AF90020F8BD4014002010B5114AF8
:10571000E3231268DB00D2184032127AD20706D097
:1057200002280AD0052804D00B2810D101E041201E
:1057300010BD4888FEF7DCFF09E04888FEF7B4FD9D
:10574000002804D001220169920511430161002063
:1057500010BD000040140020F1B5FFB085B0472017
:1057600001900020694608805348E3210068C90081
:1057700047188498FEF798FD0290002874D0B96805
:1057800008374FE0684600880D4604AC20186B4689
:105790000222283100F0A4FD68460088294620181E
:1057A0006B4601222C3100F09BFD2E462036307BCB
:1057B00069460128098804A809D040186B461022C0
:1057C0002946083100F08CFD01902C6A27E0401832
:1057D0006B460222F4E76946098804A8401821466E
:1057E0006B4602221C3100F07BFD6946098804A843
:1057F000401821466B460122233100F071FD232021
:10580000005D69460128098804A830D04018214667
:105810006B461022083100F063FD01902468B44209
:10582000D9D12968B942ADD1019800281CD1684668
:10583000008881070AD0214A011D11406A46118063
:105840000A1A04A908180B21FBF77BFE02980088AE
:1058500008F0E9FA002807D1849869460005000D90
:1058600004AA098806F0B6FE7FB006B0F0BD401865
:1058700021466B460222083100F032FD019020895A
:105880000F498842CAD120460299FEF7EFFE400038
:10589000A16903906A460918128804A880186B460B
:1058A000022200F01DFD0190A16903980222081850
:1058B0000021FBF746FEB1E740140020FCFF00008A
:1058C00002290000F0B5074617480E4600683B2144
:1058D00049014018007885B01D461446C00706D01F
:1058E00003A9384600F016FA00280AD102E0472042
:1058F00005B0F0BD04AA3046039900F0FBF900287A
:1059000001D06020F4E70499228860880968002AA1
:1059100000D0088C32466E4631C60323394600203B
:1059200000F004F8E4E7000040140020FFB5002078
:1059300099B0239A0B901290054614900646159044
:105940001C46DB480B460068E321C900411803915F
:105950000021229F089109915188069111880A918E
:105960003B21490140180078C00706D00FA918460E
:1059700000F0D0F900280AD102E047201DB0F0BDA8
:1059800010AA0F991B9800F0B5F9002801D06020EB
:10599000F4E71998002803D0600701D5012000E042
:1059A00000201390A007800F1C90109817902030B3
:1059B000C078012840D11798BE4B01899942F9D18E
:1059C0001798069904680A98228C4118914233D896
:1059D0002046203016908078012816D0E08B049065
:1059E0001798806900788006800F7DD0039840303A
:1059F0001890007A800777D51C980028F5D0AD4F15
:105A00000F99FF372031206814E0BA4214D3B9420D
:105A1000DDD80497E4E70389A64A934203D1232201
:105A2000125C012A08D0BB4203D12322125C012A56
:105A300003D000688842EED134E105900028FBD005
:105A40009B48052102684902511889690027009185
:105A500062E0780100990390085A01055AD019991B
:105A6000002901D0884255D105997A008B69511CD3
:105A7000595C9A5C0902891889B20D91890749D04D
:105A8000022205990AF09EFB002804D019980028EC
:105A900040D0652072E7002008A9C8551C98C007AF
:105AA00018D0179880690078C00613D50D98C007E4
:105AB00010D00120C8550543009A039880184088EB
:105AC000159A904206D91590009A0398105A00052D
:105AD000000D14901C9880071CD5179880690078D9
